{
  "contractName": "ElectionFactory",
  "abi": [
    {
      "constant": true,
      "inputs": [
        {
          "name": "",
          "type": "uint256"
        }
      ],
      "name": "electionAddresses",
      "outputs": [
        {
          "name": "",
          "type": "address"
        }
      ],
      "payable": false,
      "stateMutability": "view",
      "type": "function"
    },
    {
      "constant": false,
      "inputs": [
        {
          "name": "signerAddress",
          "type": "address"
        },
        {
          "name": "_electionID",
          "type": "uint256"
        }
      ],
      "name": "createNewElection",
      "outputs": [
        {
          "name": "created",
          "type": "address"
        }
      ],
      "payable": false,
      "stateMutability": "nonpayable",
      "type": "function"
    }
  ],
  "bytecode": "0x608060405234801561001057600080fd5b506112ab806100206000396000f30060806040526004361061004c576000357c0100000000000000000000000000000000000000000000000000000000900463ffffffff16806363fdfa7f14610051578063f07b47591461008e575b600080fd5b34801561005d57600080fd5b5061007860048036036100739190810190610259565b6100cb565b6040516100859190610291565b60405180910390f35b34801561009a57600080fd5b506100b560048036036100b0919081019061021d565b6100fe565b6040516100c29190610291565b60405180910390f35b60006020528060005260406000206000915054906101000a900473ffffffffffffffffffffffffffffffffffffffff1681565b600080600080600085815260200190815260200160002060009054906101000a900473ffffffffffffffffffffffffffffffffffffffff1673ffffffffffffffffffffffffffffffffffffffff1614151561015857600080fd5b836101616101e5565b61016b9190610291565b604051809103906000f080158015610187573d6000803e3d6000fd5b5090508060008085815260200190815260200160002060006101000a81548173ffffffffffffffffffffffffffffffffffffffff021916908373ffffffffffffffffffffffffffffffffffffffff1602179055508091505092915050565b604051610f7b806102f783390190565b600061020182356102cc565b905092915050565b600061021582356102ec565b905092915050565b6000806040838503121561023057600080fd5b600061023e858286016101f5565b925050602061024f85828601610209565b9150509250929050565b60006020828403121561026b57600080fd5b600061027984828501610209565b91505092915050565b61028b816102ac565b82525050565b60006020820190506102a66000830184610282565b92915050565b600073ffffffffffffffffffffffffffffffffffffffff82169050919050565b600073ffffffffffffffffffffffffffffffffffffffff82169050919050565b600081905091905056006080604052600080553480156200001557600080fd5b5060405160208062000f7b833981018060405262000037919081019062000261565b620000866040805190810160405280600b81526020017f43616e64696461746520310000000000000000000000000000000000000000008152506200011d640100000000026401000000009004565b620000d56040805190810160405280600b81526020017f43616e64696461746520320000000000000000000000000000000000000000008152506200011d640100000000026401000000009004565b80600660006101000a81548173ffffffffffffffffffffffffffffffffffffffff021916908373ffffffffffffffffffffffffffffffffffffffff16021790555050620002ad565b600360008154809291906001019190505550606060405190810160405280600354815260200182815260200160008152506001600060035481526020019081526020016000206000820151816000015560208201518160010190805190602001906200018b9291906200019c565b506040820151816002015590505050565b828054600181600116156101000203166002900490600052602060002090601f016020900481019282601f10620001df57805160ff191683800117855562000210565b8280016001018555821562000210579182015b828111156200020f578251825591602001919060010190620001f2565b5b5090506200021f919062000223565b5090565b6200024891905b80821115620002445760008160009055506001016200022a565b5090565b90565b60006200025982516200028d565b905092915050565b6000602082840312156200027457600080fd5b600062000284848285016200024b565b91505092915050565b600073ffffffffffffffffffffffffffffffffffffffff82169050919050565b610cbe80620002bd6000396000f300608060405260043610610077576000357c0100000000000000000000000000000000000000000000000000000000900463ffffffff168062358fa21461007c5780632d35a8a2146100b95780633477ee2e146100e457806398c0793814610123578063da58c7d91461014e578063ea2ff0a21461018e575b600080fd5b34801561008857600080fd5b506100a3600480360361009e9190810190610974565b6101b7565b6040516100b09190610a59565b60405180910390f35b3480156100c557600080fd5b506100ce610329565b6040516100db9190610ad9565b60405180910390f35b3480156100f057600080fd5b5061010b6004803603610106919081019061094b565b61032f565b60405161011a93929190610b39565b60405180910390f35b34801561012f57600080fd5b506101386103f1565b6040516101459190610ad9565b60405180910390f35b34801561015a57600080fd5b506101756004803603610170919081019061094b565b6103f7565b6040516101859493929190610af4565b60405180910390f35b34801561019a57600080fd5b506101b560048036036101b091908101906108cc565b610441565b005b6000806102878430604051602001808381526020018273ffffffffffffffffffffffffffffffffffffffff1673ffffffffffffffffffffffffffffffffffffffff166c01000000000000000000000000028152601401925050506040516020818303038152906040526040518082805190602001908083835b6020831015156102555780518252602082019150602081019050602083039250610230565b6001836020036101000a0380198251168184511680821785525050505050509050019150506040518091039020610628565b9050600660009054906101000a900473ffffffffffffffffffffffffffffffffffffffff1673ffffffffffffffffffffffffffffffffffffffff166102cc82856106e3565b73ffffffffffffffffffffffffffffffffffffffff16141561031d577f45078296fc63362513b28d3ee8be8c407d7d213a7d6823ad8f50b8490b49c8c760405160405180910390a160019150610322565b600091505b5092915050565b60035481565b6001602052806000526040600020600091509050806000015490806001018054600181600116156101000203166002900480601f0160208091040260200160405190810160405280929190818152602001828054600181600116156101000203166002900480156103e15780601f106103b6576101008083540402835291602001916103e1565b820191906000526020600020905b8154815290600101906020018083116103c457829003601f168201915b5050505050908060020154905083565b60045481565b60026020528060005260406000206000915090508060000154908060010160009054906101000a900460ff16908060010160019054906101000a900460ff16908060020154905084565b6000805490505b816000540181101561049a57828181518110151561046257fe5b9060200190602002015160058281548110151561047b57fe5b9060005260206000200181600019169055508080600101915050610448565b600090505b81811015610613576104df84828151811015156104b857fe5b9060200190602002015184838151811015156104d057fe5b906020019060200201516101b7565b1515610520576040517f08c379a000000000000000000000000000000000000000000000000000000000815260040161051790610ab9565b60405180910390fd5b828181518110151561052e57fe5b9060200190602002015160026000838152602001908152602001600020600201816000191690555060016002600083815260200190815260200160002060010160016101000a81548160ff02191690831515021790555060016000858381518110151561059757fe5b9060200190602002015181526020019081526020016000206002016000815480929190600101919050555083818151811015156105d057fe5b906020019060200201517ffff3c900d938d21d0990d786e819f29b8d05c1ef587b462b939609625b684b1660405160405180910390a2808060010191505061049f565b81600080828254019250508190555050505050565b60008160405160200180807f19457468657265756d205369676e6564204d6573736167653a0a333200000000815250601c0182600019166000191681526020019150506040516020818303038152906040526040518082805190602001908083835b6020831015156106af578051825260208201915060208101905060208303925061068a565b6001836020036101000a03801982511681845116808217855250505050505090500191505060405180910390209050919050565b6000806000806106f28561075a565b809350819450829550505050600186848484604051600081526020016040526040516107219493929190610a74565b60206040516020810390808403906000865af1158015610745573d6000803e3d6000fd5b50505060206040510351935050505092915050565b60008060006041602060ff1614151561077257600080fd5b6020840151915060408401519050606084015160001a92508282829250925092509193909250565b600082601f83011215156107ad57600080fd5b81356107c06107bb82610ba4565b610b77565b915081818352602084019350602081019050838560208402820111156107e557600080fd5b60005b8381101561081557816107fb88826108a4565b8452602084019350602083019250506001810190506107e8565b5050505092915050565b600082601f830112151561083257600080fd5b813561084561084082610bcc565b610b77565b9150818183526020840193506020810190508385602084028201111561086a57600080fd5b60005b8381101561089a578161088088826108b8565b84526020840193506020830192505060018101905061086d565b5050505092915050565b60006108b08235610c2c565b905092915050565b60006108c48235610c36565b905092915050565b6000806000606084860312156108e157600080fd5b600084013567ffffffffffffffff8111156108fb57600080fd5b6109078682870161081f565b935050602084013567ffffffffffffffff81111561092457600080fd5b6109308682870161079a565b9250506040610941868287016108b8565b9150509250925092565b60006020828403121561095d57600080fd5b600061096b848285016108b8565b91505092915050565b6000806040838503121561098757600080fd5b6000610995858286016108b8565b92505060206109a6858286016108a4565b9150509250929050565b6109b981610bff565b82525050565b6109c881610c0b565b82525050565b60006109d982610bf4565b8084526109ed816020860160208601610c40565b6109f681610c73565b602085010191505092915050565b6000601382527f7369676e617475726520696e636f7272656374000000000000000000000000006020830152604082019050919050565b610a4481610c15565b82525050565b610a5381610c1f565b82525050565b6000602082019050610a6e60008301846109b0565b92915050565b6000608082019050610a8960008301876109bf565b610a966020830186610a4a565b610aa360408301856109bf565b610ab060608301846109bf565b95945050505050565b60006020820190508181036000830152610ad281610a04565b9050919050565b6000602082019050610aee6000830184610a3b565b92915050565b6000608082019050610b096000830187610a3b565b610b1660208301866109b0565b610b2360408301856109b0565b610b3060608301846109bf565b95945050505050565b6000606082019050610b4e6000830186610a3b565b8181036020830152610b6081856109ce565b9050610b6f6040830184610a3b565b949350505050565b6000604051905081810181811067ffffffffffffffff82111715610b9a57600080fd5b8060405250919050565b600067ffffffffffffffff821115610bbb57600080fd5b602082029050602081019050919050565b600067ffffffffffffffff821115610be357600080fd5b602082029050602081019050919050565b600081519050919050565b60008115159050919050565b6000819050919050565b6000819050919050565b600060ff82169050919050565b6000819050919050565b6000819050919050565b60005b83811015610c5e578082015181840152602081019050610c43565b83811115610c6d576000848401525b50505050565b6000601f19601f83011690509190505600a265627a7a72305820fcc46aae9bae2f5328c2d018d55a8e420cf386c45a32cfb92925aa2dfe3e33e86c6578706572696d656e74616cf50037a265627a7a72305820222cd3ddaa2e46d4562e1bac309462dc5481dcd464fe1b74f9cdbe2a2ee3cac96c6578706572696d656e74616cf50037",
  "source": "pragma solidity ^0.4.23;\npragma experimental ABIEncoderV2;\nimport './Election.sol';\n\n\ncontract ElectionFactory {\n\nmapping(uint256=>address) public electionAddresses;\n\nfunction createNewElection(address signerAddress, uint256 _electionID) public returns (address created){\n    \n    //check that electionID does not exist first\n    require(electionAddresses[_electionID] == 0x00);\n\n    Election electionContractAddress = new Election(signerAddress);\n    electionAddresses[_electionID] = electionContractAddress;\n    //returns the new election contract address\n    return electionContractAddress;\n}\n\n}",
  "sourcePath": "C:/Users/user/Desktop/mini test/mini/contracts/ElectionFactory.sol",
  "compiler": {
    "name": "solc",
    "version": "0.4.23+commit.124ca40d.Emscripten.clang"
  },
  "schemaVersion": "3.2.2",
  "updatedAt": "2020-08-28T02:17:41.979Z",
  "networkType": "ethereum",
  "devdoc": {
    "methods": {}
  },
  "userdoc": {
    "methods": {}
  }
}